:100000000C94B6050C94FD050C94FD050C94FD05AF
:100010000C94FD050C94FD050C94FD050C94FD0558
:100020000C94FD050C94FD050C9499280C946C29F6
:100030000C94AF1A0C94FD050C94FD050C94FD0571
:100040000C94FD050C94FD050C94FD050C94FD0528
:100050000C94FD050C941A1B0C94FD050C94FD05E5
:100060000C94FD050C94FD050C94FD050C94FD0508
:100070000C94FD050C94FD050C94FD050C94FD05F8
:100080000C94FD050C94FD050C94FD050C94FD05E8
:100090000C94FD050C94FD050C94FD050C94FD05D8
:1000A0000C94FD050C94FD050C94FD050400050061
:1000B00006000700080009000A000B00000000000D
:1000C00044454255473A2064697361626C65642E09
:1000D0000A0044454255473A20656E61626C65648A
:1000E0002E0A000A002530313662003A2000253001
:1000F0003258000A722F63203031323334353637AC
:1001000038394142434445460A000A0025303258F6
:1001100020006B6579626F6172645F7265706F72E7
:10012000743A20000A0025303258006B6579626FFE
:100130006172645F7365745F6C65643A2000290ABC
:10014000002575002F002575005D2800256400201E
:1001500000256400200025640020002564007C0048
:1001600025303258006D6F7573656B6579205B6261
:10017000746E7C782079207620685D287265702FF7
:1001800061636C293A205B006D6B5F776865656C15
:100190005F74696D655F746F5F6D6178203D2025C8
:1001A000640A006D6B5F776865656C5F6D61785F91
:1001B0007370656564203D2025640A006D6B5F7473
:1001C000696D655F746F5F6D6178203D2025640AFD
:1001D000006D6B5F6D61785F7370656564203D20B5
:1001E00025640A006D6B5F696E74657276616C20C0
:1001F0003D2025640A006D6B5F64656C6179203D6C
:100200002025640A006D6B5F776865656C5F7469B3
:100210006D655F746F5F6D6178203D2025640A0015
:100220006D6B5F776865656C5F6D61785F73706536
:100230006564203D2025640A006D6B5F74696D65FF
:100240005F746F5F6D6178203D2025640A006D6BDF
:100250005F6D61785F7370656564203D2025640A79
:10026000006D6B5F696E74657276616C203D202550
:10027000640A006D6B5F64656C6179203D202564C4
:100280000A000A00257500363A20776865656C5FBC
:1002900074696D655F746F5F6D61783A20000A0064
:1002A000257500353A20776865656C5F6D61785F0C
:1002B00073706565643A20000A00257500343A20A1
:1002C00074696D655F746F5F6D61783A20000A0034
:1002D000257500333A206D61785F73706565643A07
:1002E00020000A00257500323A20696E7465727626
:1002F000616C286D73293A20000A00257500313A97
:100300002064656C6179282A31306D73293A2000A8
:100310000A092D2056616C756573202D0A004D3E2B
:10032000004D25643E20003F0073657420646566BF
:1003300061756C740A00433E200077686572652021
:1003400064656C74613A20637572736F723D2564E5
:100350002C20776865656C3D25640A5365652068C7
:100360007474703A2F2F656E2E77696B69706564AF
:1003700069612E6F72672F77696B692F4D6F757387
:10038000655F6B6579730A000A092D204D6F7573DF
:10039000656B6579202D0A4553432F713A097175B4
:1003A00069740A313A0964656C6179282A31306DC3
:1003B00073290A323A09696E74657276616C286D28
:1003C00073290A333A096D61785F73706565640A51
:1003D000343A0974696D655F746F5F6D61780A35D1
:1003E0003A09776865656C5F6D61785F7370656504
:1003F000640A363A09776865656C5F74696D655F94
:10040000746F5F6D61780A0A703A097072696E7470
:100410002076616C7565730A643A097365742064AB
:10042000656661756C74730A75703A092B310A64DC
:100430006F776E3A092D310A706775703A092B3162
:10044000300A7067646F776E3A092D31300A0A738B
:1004500070656564203D2064656C7461202A206DA0
:1004600061785F7370656564202A20287265706505
:100470006174202F2074696D655F746F5F6D6178A2
:10048000290A003F004D3E2000433E20004C2564D9
:100490000A0074696D65725F726561643332282980
:1004A0003A202530346C580A006B6579626F6172AE
:1004B000645F69646C653A2025580A006B6579624F
:1004C0006F6172645F70726F746F636F6C3A202536
:1004D000580A00686F73745F6B6579626F6172644C
:1004E0005F6C65647328293A2025580A000A092D93
:1004F00020537461747573202D0A004743433A20DA
:10050000392E312E30204156522D4C4942433A204B
:10051000322E302E30204156525F415243483A200D
:10052000617672350A004F5054494F4E533A204C71
:10053000554641204D4F5553454B4559204558543C
:1005400052414B455920434F4E534F4C4520434F4A
:100550004D4D414E4420343039360A004255494C05
:10056000443A2022302E31312E32302D31332D6756
:1005700063643064326422202830333A33313A35B0
:1005800030204465632032362032303230290A0070
:100590005649443A203078464545442850657261B2
:1005A0006E656B6F466163746F72792920504944A0
:1005B0003A2030783030303028746F6E65292056FC
:1005C00045523A203078303030310A000A092D2067
:1005D00056657273696F6E202D0A000A092D20433B
:1005E0006F6E736F6C65202D0A4553432F713A0966
:1005F000717569740A6D3A096D6F7573656B65790C
:100600000A000A092D204D61676963202D0A443ACA
:10061000094465627567204D657373616765205491
:100620006F67676C650A583A094D61747269782082
:100630004465627567204D6F646520546F67676C11
:1006400065202D2053686F77206B65797072657314
:1006500073657320696E206D6174726978206772AA
:1006600069640A4B3A094B6579626F617264204490
:100670006562756720546F67676C65202D2053682D
:100680006F77206B65797072657373207265706F18
:1006900072740A4D3A094465627567204D6F75732F
:1006A0006520546F67676C650A563A095665727320
:1006B000696F6E0A533A095374617475730A433A49
:1006C00009416374697661746520436F6E736F6C62
:1006D00065204D6F64650A46312D4631303A095325
:1006E000776974636820746F204C6179657220307B
:1006F0002D392028463130203D204C30290A302D1C
:10070000393A0953776974636820746F204C6179B2
:10071000657220302D390A47524156453A095377C0
:100720006974636820746F204C6179657220302091
:1007300028616C7465726E617465290A423A094ACF
:10074000756D7020746F20426F6F746C6F6164659B
:10075000720A4553433A094A756D7020746F2042FE
:100760006F6F746C6F616465722028616C74657260
:100770006E617465290A453A095072696E742045A4
:100780004550524F4D2053657474696E67730A4229
:1007900053504143453A09436C65617220454550C9
:1007A000524F4D0A000A002575002E6E6B726F3A8B
:1007B00020000A002575002E737761705F62616307
:1007C0006B736C6173685F6261636B7370616365A7
:1007D0003A20000A002575002E737761705F6772FA
:1007E0006176655F6573633A20000A002575002E07
:1007F0006E6F5F6775693A20000A002575002E73D9
:100800007761705F72616C745F726775693A20001E
:100810000A002575002E737761705F6C616C745FE0
:100820006C6775693A20000A002575002E737761A0
:10083000705F7263746C5F726775693A20000A00BA
:100840002575002E737761705F6C63746C5F6C67E5
:1008500075693A20000A002575002E636170736C7B
:100860006F636B5F746F5F636F6E74726F6C3A204F
:10087000000A002575002E737761705F636F6E74D8
:10088000726F6C5F636170736C6F636B3A20000A08
:100890000025303258006B65796D61705F636F6E53
:1008A0006669672E7261773A20000A002575002E6E
:1008B0006D6F7573653A20000A002575002E6B6513
:1008C00079626F6172643A20000A002575002E6D0E
:1008D00061747269783A20000A002575002E656EF1
:1008E00061626C653A20000A002530325800646568
:1008F0006275675F636F6E6669672E7261773A2013
:10090000000A0025750064656661756C745F6C6132
:100910007965723A20003F000A6D6F7573653A2061
:100920006F66660A000A6D6F7573653A206F6E0A0E
:10093000000A6B6579626F6172643A206F66660ABD
:10094000000A6B6579626F6172643A206F6E0A000B
:100950000A6D61747269783A206F66660A000A6DE2
:1009600061747269783A206F6E0A000A6465627574
:10097000673A206F66660A000A64656275673A2006
:100980006F6E0A000A0A4A756D70696E6720746F8F
:1009900020626F6F746C6F616465722E2E2E200062
:1009A000433E2000436C656172696E672045455087
:1009B000524F4D0A006565636F6E6669673A0A00BB
:1009C0005B735D004B6579626F6172642073746163
:1009D00072742E0A005B575D005B535D005B525DD5
:1009E000005B445D005B435D000A0374006F006EB2
:1009F0000065000000200350006500720061006E79
:100A00000065006B006F0046006100630074006FBA
:100A1000007200790000000403090409025B00036E
:100A20000100A0FA090400000103010100092111DD
:100A30000100012240000705810308000A090401A2
:100A400000010300000009211101000122810007BB
:100A500005820320000A09040200020300000009C5
:100A60002111010001222200070583032000010754
:100A70000503032000011201100100000008EDFE33
:100A800000000100010200010631FF0974A1010903
:100A900075150026FF00952075088102097615005E
:100AA00026FF00952075089102C005010902A101E9
:100AB00085020901A1000509190129051500250173
:100AC00095057501810295017503810105010930C4
:100AD00009311581257F9502750881060938158130
:100AE000257F950175088106050C0A3802158125B8
:100AF0007F950175088106C0C005010980A10185A7
:100B00000319012AB700150126B700950175108158
:100B100000C0050C0901A101850419012AA00215D4
:100B20000126A002950175108100C005010906A1EA
:100B300001050719E029E7150025019508750181D0
:100B4000029501750881010507190029FF15002686
:100B5000FF0095067508810005081901290595050E
:100B600075019102950175039101C00011241FBE0A
:100B7000CFEFDAE0DEBFCDBF04B603FE27C0809121
:100B8000460290914702A0914802B09149028730F5
:100B9000904BA740B04BD1F41092460210924702FE
:100BA000109248021092490214BE84B7877F84BF16
:100BB0000FB6F894A89580916000886180936000DA
:100BC000109260000FBEE0E0F8E3099511E0A0E0AC
:100BD000B1E0EEEEF7E502C005900D92A43AB10740
:100BE000D9F722E0A4EAB1E001C01D92A634B20711
:100BF000E1F70E94D6250C94992B0C940000FF93EA
:100C0000EF93E091A401F091A501309709F00995C7
:100C1000EF91FF910895FC018591803011F0EFDF95
:100C2000FBCF0895FF27E0E230E247FF0CC041957B
:100C300097FF09C0EDE26095709580959095611DD4
:100C4000711D811D911D27FF02C0219530E350E2E7
:100C5000AA27660F771F881F991FAA1FA41710F0D5
:100C6000A41B63955A95A9F7AA3008F0A95FA05D67
:100C7000AF93F395611571058105910541F7ED324B
:100C800011F4EF93F395F21718F43F93F395FBCF1C
:100C90008F91B5DFFA95E1F70895E991F991859182
:100CA000803021F0853219F0AADFF9CF089520E0D5
:100CB000E89455915532C1F3503311F4689455912D
:100CC0005A3348F4505390F3220F022E220F220F72
:100CD000200D250FF4CF0EF421958991999153366B
:100CE00019F3533729F1533559F1BC018827992756
:100CF000E8945C3621F48991999168945591543621
:100D000039F446EF7EF077FF0DC08FEF9FEF0AC0FA
:100D100055374AE039F0583540E121F0523642E08B
:100D200009F00895FF93EF937DDFEF91FF91B7CF27
:100D3000FF93EF93FC0181918030B9F360DFFBCF2B
:100D4000FF93EF9368DFF1CFDF93CF93CDB7DEB79B
:100D50002596A3DFCF91DF91089587E2611101C04D
:100D60008EE10C94590F81E0089581E008950C9470
:100D7000B50608950C94B9061F93CF93DF9300D066
:100D800000D00F92CDB7DEB749835A836B83309181
:100D9000B90189819A8131111DC06623B9F02223DE
:100DA000A9F00E94E817182F682F89819A810E9464
:100DB000911769817A81812F0F900F900F900F907A
:100DC0000F90DF91CF911F910C9484070E94BF1761
:100DD000182FEFCF0E94E81769817A81EDCFFC01CF
:100DE000262F408151816281738184810C94BC06DD
:100DF000CF93DF93D82FC92F60E00E94EF066D2FAD
:100E00007C2FDF91CF910C94BA060E945D1981115D
:100E100002C00E94011A0C9490090C949309089541
:100E20000E9441120E940F072FEF84E39CE02150A3
:100E300080409040E1F700C000000C943E1B0F93EF
:100E40001F93CF93DF93EC0161E00E94EF068C01CA
:100E5000BE010E94B706882311F1BE01C8010E949D
:100E6000740B8823E1F0BE01C8010E94C90B8823DE
:100E7000B1F0BE01C8010E949C0C882381F08A81D8
:100E8000882341F101308CE5180779F00F3D8CE59E
:100E90001807E9F001151C45E9F40E94100780E0ED
:100EA000DF91CF911F910F91089590911102892F99
:100EB0008E7F90FF81608093110280FF05C082EDDC
:100EC00090E00E940B06EBCF80EC90E0FACF0E94FE
:100ED000011AE5CFCE01DF91CF911F910F910C94B4
:100EE000B30608950C94710781E008950C9474077B
:100EF000CF93C82F0E9472078C2FCF910C94760746
:100F000090E080E008950895E62F272F280F3327DB
:100F1000331FC9012AE0289FB001299F700D1124B9
:100F2000E60FF72FF11DEE0FFF1FE455FF4F8591E0
:100F300094910895FC01EE0FFF1FED51FF4F859135
:100F400094910895CF93DF930E9484070E94B40880
:100F5000EC01811520E5920708F04BC0811530E4C3
:100F6000930708F0B2C0803E910518F5803C9105CA
:100F700008F09FC0883A910570F4853A910508F011
:100F800095C08130910529F10497813A910508F1C6
:100F9000D0E0C0E01EC08F3B9105D1F3C85AD0E02D
:100FA000CC0FDD1FCB5EDE4F0990D881C02DD464FD
:100FB00010C0811540E2940780F48F3F910509F03D
:100FC00040F4883E910528F0805F9109D0654097F4
:100FD000F8F6CE01DF91CF910895C11580E3D807CF
:100FE00008F46DC0CE019927D3FD6CC0EC01D06C24
:100FF000F0CFC11595E5D90760F5C11524E5D207F5
:1010000008F094C0C11533E5D30778F4C11542E563
:10101000D40708F07AC0C11581E5D80708F458C094
:10102000DC2FCC27C16FD06AD4CFCE018370992733
:1010300021E030E002C0220F331F8A95E2F7C69507
:10104000C69590E2C99FE0011124C22BD32BDA6828
:10105000C0CFC1152AE5D207B0F4C11539E5D307D1
:1010600008F074C0C11546E5D40708F464C0CE0189
:1010700098558F3F910511F008F08ACFDC2FCC27CF
:10108000C06FD06AA6CFCE0190568115904208F06D
:101090007FCF8D2F8F710E944C0990E0982F882769
:1010A00088279F719C012C2BE9014EC0A497D06426
:1010B00090CF805C91090E949A07EC018ACFCE0103
:1010C0009F70F9CFEC01D86C84CFDF70D06A81CFEC
:1010D000CE0174E0969587957A95E1F783702C2F71
:1010E00026952695237040E2249F90011124382BE9
:1010F0008C2F8370C1E0D0E002C0CC0FDD1F8A9539
:10110000E2F7C22BD32BDC6864CFCE018370992722
:1011100021E030E002C0220F331F8A95E2F7C69526
:10112000C69580E2C89FE0011124EBCFDC2FCC27CD
:10113000C46FD06A4ECF8C2F0E944C09C82FD0E0CC
:10114000DC2FCC27CC27DF71D06243CF8C2F8F7060
:101150000E944C0934E0D695C7953A95E1F7CF70D7
:10116000DC2FC82FD06935CF803E910599F1C8F4A6
:101170008133910509F476C048F48932910509F468
:101180006AC08A32910509F474C0089589339105C3
:10119000D1F082389105B9F08533910509F454C036
:1011A0000895843E910599F138F4823E9105F9F055
:1011B000833E910509F10895863E910599F1873E98
:1011C0009105B9F10895209137022370A1F080EEC6
:1011D00090E008952091370220FD52C030913802EE
:1011E00030FF09C024FF4FC090E080E004C0209190
:1011F000370222FDF7CF08952091370222FD46C025
:101200003091380230FDE3CF24FFF5CFEDCF2091B0
:10121000380221FFF0CF8091370284FDE5CF87EEC1
:1012200090E008952091370223FFE5CF24FDDCCF25
:10123000F6CF2091370223FD2CC03091380231FFC8
:10124000E3CF84EE90E008952091370225FFD3CFBD
:1012500089E290E008952091370225FFCCCF85E305
:1012600090E008952091370226FFC5CF8AE290E0F2
:1012700008952091370226FFBECF81E390E00895C4
:1012800089E390E0089583EE90E0089582EE90E087
:10129000089586EE90E008959091370292FF06C07F
:1012A000282F28712830F9F4877F846093FF06C0C7
:1012B000282F28712831F1F4877E8461209138022B
:1012C00020FF06C0382F38713830D9F4877F81600D
:1012D00021FF06C0282F28712831D1F4877E816133
:1012E00094FD877E0895282F24712430F9F68B7F92
:1012F0008860DCCF282F2471243101F78B7E886130
:10130000DDCF382F3171313019F78E7F8860E0CF13
:10131000282F2171213121F78E7E8861E1CF089538
:101320000C948F0908950C949209E82FF0E0EE0FC9
:10133000FF1FEF5CFD4F80819181089583EF90E066
:101340000E940B061F921F928EEE90E09F938F9348
:101350000E94A4068BEE90E00E940B068091310261
:10136000909132020E9450199F938F9385EE90E0E6
:101370009F938F930E94A4068DB79EB708960FB6D1
:10138000F8949EBF0FBE8DBF83EE90E00C940B06C9
:1013900080EA8A95F1F70895F894E82FE295EF70C6
:1013A000F0E041A18F7021E030E0B90102C0660F8A
:1013B000771F8A95E2F7CB01962F9095942391A3FE
:1013C00092A1892B82A3789408950F931F93CF93B2
:1013D000DF938FEF0E94CC09C3E4D1E00DE411E06C
:1013E00089910E94CC090C171D07D1F71092300289
:1013F00010922F02109232021092310281E00E946C
:10140000580ADF91CF911F910F910C940507CF934C
:10141000DF93F89480B380BB81B381BB78940E9442
:10142000C809A3E4B1E030E020E0D0E0C0E061E032
:1014300070E04D91E42FE295EF70F0E080A190E034
:101440004F7002C0959587954A95E2F780FD2BC0B5
:10145000CB01022E02C0880F991F0A94E2F7C82B15
:10146000D92B2F5F3F4F2A30310519F78FEF0E949C
:10147000CC0980912F0290913002C817D907B1F0A2
:10148000D0933002C0932F02C1E02C2F41E061E3E2
:1014900072E08FE292E00E94590A0E940D078C2FA1
:1014A000DF91CF91089590E080E0D9CFC0E0EDCFFB
:1014B0000895FF920F931F93CF93DF93F82E092F78
:1014C000162FD72FC42F222349F081E08093A80143
:1014D0000E94DF1A9093A7018093A6018091A80132
:1014E0008823A1F08091A6019091A7010E940B1B77
:1014F000069760F0EF2DF02FA12FBD2F90E080E038
:10150000D0E08C179D0744F01092A801DF91CF9195
:101510001F910F91FF900895219131912D933D934B
:101520000196EFCF0C94AD0625982D9A24982C9A0D
:1015300083B185FB882780F91C9905C090E0892B31
:101540008093AB01089592E0FACFE091AB01EE0FEA
:10155000EE0FE093AB0143B145FB882780F943B11F
:1015600044FB222720F944FF02C022E030E0822B16
:10157000E82BE093AB01EF70F0E0E35BFE4F80817E
:101580009091AA01890F8093AA0184304CF0809138
:10159000A9018F5F8093A90160E080E00E94920A18
:1015A0008091AA018D3F4CF48091A90181508093D4
:1015B000A90161E080E00E94920A8091AA01082EB0
:1015C000000C990B64E070E00E94292B8093AA0123
:1015D0000895AF92BF92CF92DF92EF92FF920F9356
:1015E0001F93CF93DF937C015B01C42FD22FFC01AB
:1015F00082818823F9F04093AE010E94DF1A909314
:10160000AD018093AC0180E28C0F883008F061C09E
:10161000C77081E001C0880FCA95EAF7DF91CF91CA
:101620001F910F91FF90EF90DF90CF90BF90AF9000
:101630000C94740F1091AE01141340C08091AC0152
:101640009091AD010E940B1B6C01B701C5010E9476
:10165000A414C816D90690F5C0E2CD0F1D17B9F035
:1016600080E2810F883040F4177081E001C0880F5C
:101670001A95EAF70E947B0FC83048F481E09D2F4D
:10168000977001C0880F9A95EAF70E94740F802F17
:101690000E94590FC830E8F4D77081E001C0880F6C
:1016A000DA95EAF7DF91CF911F910F91FF90EF90BC
:1016B000DF90CF90BF90AF900C947B0F80E28C0FA7
:1016C000883038F4C77081E001C0880FCA95EAF706
:1016D000E9CFDF91CF911F910F91FF90EF90DF90B5
:1016E000CF90BF90AF9008950F939C01CB01243F02
:1016F0004CE53407A1F190F4293DFCE53F0749F1A1
:101700002A3D4CE53407E9F1283D3C45C1F0FC0198
:1017100082818823E1F11092AE0119C0263FFCE5D9
:101720003F0719F1273F4CE5340729F1253F3C4598
:1017300071F707E225EE44EE65EF7CE505C006E2B1
:1017400021EE41EE68ED7CE50E94E90A80E00F9110
:10175000089507E225EE45EE69ED7CE5F5CF06E25A
:1017600021EE40EE64EF7CE5EFCF06E221EE42EEA3
:1017700066EF7CE5E9CF07E225EE46EE67EF7CE514
:10178000E3CF08E221E045EE6AED7CE5DDCF81E0C4
:10179000DECFCF93DF93EC01FB018281882309F434
:1017A000C9C0C631FCE5DF07E0F4C2309CE5D907CB
:1017B000F0F00E9470199093380280933702C6317E
:1017C000ECE5DE0720F5C230FCE5DF0798F48091F8
:1017D0003702909138020E947E190E94411280E0E7
:1017E00006C09E012B5F3C452930310510F3DF9187
:1017F000CF910895FE01E350FC458091370281604E
:10180000E331F10588F4E556F44D0C943D2BCB5FA4
:10181000DC45C930D105D8F6C255D44DFE010C9433
:101820003D2B80913702826080933702D0CF809128
:1018300037028460F9CF809137028860F5CF8091BC
:101840003802816080933802C2CF80913802826072
:10185000F9CF809137028061E7CF809137028062B3
:10186000E3CF809137028064DFCF0E9441128091E4
:1018700037028068D9CF809137028C60D5CF8091B4
:1018800038028360DFCF809137028E7FCDCF809189
:1018900037028D7FC9CF809137028B7FC5CF809172
:1018A0003702877FC1CF809138028E7FCBCF809166
:1018B00038028D7FC7CF809137028F7EB5CF809160
:1018C00037028F7DB1CF809137028F7BADCF0E94E1
:1018D0004112809137028F77A7CF80913702837FA3
:1018E000A3CF809138028C7FADCF8091370282FBED
:1018F000992790F921E0922790FB82F990FB83F9D8
:1019000093CF80913802982F909591708E7F892B7C
:1019100090FB81F997CF0E94411290913702892F55
:1019200097FB87F9805880CF81E00E94031A4FCF40
:1019300080E0FBCF81E05BCFCF93DF93EB0186317B
:101940009C4511F50E9485189A81992399F08A7A0D
:1019500091E009F490E09093AF01811109C089E210
:101960000E9460180E94D41880E0DF91CF91089502
:1019700085E3F6CF8091AF01811104C089E20E9416
:101980006718F0CF85E3FBCF81E0EFCF9093B501EF
:101990008093B4010895E091B401F091B5013097BE
:1019A00021F00190F081E02D099480E00895EF92FC
:1019B000FF920F931F93CF93DF938C01E091B401BB
:1019C000F091B5013097C1F10280F381E02D0995C6
:1019D0008091110282FF30C080FF04C082E191E05B
:1019E0000E940B06D0E0C0E08CE0E82E81E0F82EEB
:1019F0008091110280FF0EC0F801EC0FFD1F808165
:101A00001F928F93FF92EF920E94A4060F900F9067
:101A10000F900F902196C830D10551F78091110297
:101A200080FF0AC08AE091E0DF91CF911F910F9172
:101A3000FF90EF900C940B06DF91CF911F910F91C7
:101A4000FF90EF900895DC01E091B401F091B501B1
:101A5000309739F082E08C930480F581E02DCD0140
:101A6000099408952091B2013091B30128173907E4
:101A700071F09093B3018093B201E091B401F091C1
:101A8000B501309721F00680F781E02D0994089583
:101A90002091B0013091B1012817390771F090936E
:101AA000B1018093B001E091B401F091B50130979C
:101AB00021F00084F185E02D0994089585B78068B0
:101AC00085BF85B7806885BF0895089508950C94F3
:101AD000650D08950C94690D0E945E0D0E94660DBF
:101AE0000C94670D81E008950C94720D089508958B
:101AF0000E94D61A0E94E5090E94621B0E94940A65
:101B00000C946A0DCF93C82F8091110282FF1EC0E2
:101B100080FF1CC08BE291E00E940B0680911102B5
:101B200080FF14C01F92CF9386E291E09F938F9322
:101B30000E94A406809111020F900F900F900F90B9
:101B400080FF04C084E291E00E940B068C2FCF91AD
:101B50000C947807CF92DF92EF92FF920F931F932E
:101B6000CF93DF9300D000D00F92CDB7DEB70E94A5
:101B7000760D0E94770D0E94070A0E94740D88233B
:101B800009F45EC080E00E9495098C01C090B70105
:101B9000D090B801C816D90609F452C0809111023C
:101BA00081FD0E949E0980E0EE24E394F12CC02682
:101BB000D12696012E213F21232BE1F189831A8220
:101BC0000E211F2181E0012B09F480E08B830E940C
:101BD000DF1A8160782F9D838C8349815A816B81C4
:101BE0008D810E943F0E8091B7019091B801E82647
:101BF000F926F092B801E092B7010E94A50A0E946E
:101C0000A21D0E94CB0C9091B601891751F10E9440
:101C1000CB0C8093B6010F900F900F900F900F9008
:101C2000DF91CF911F910F91FF90EF90DF90CF90B8
:101C30000C94820D8F5FEE0CFF1C8A3009F0B9CF37
:101C40008FEF89838A831B820E94DF1A8160782F3D
:101C50009D838C8349815A816B818D810E943F0EC7
:101C6000CCCF0F900F900F900F900F90DF91CF91EE
:101C70001F910F91FF90EF90DF90CF900895CF9339
:101C8000DF93CDB7DEB72B970FB6F894DEBF0FBE4C
:101C9000CDBF4F83588769877A878B871E8285E0FF
:101CA000FE013796DE01119601900D928A95E1F7BB
:101CB00049815A816B817C818D819E812B960FB6E3
:101CC000F894DEBF0FBECDBFDF91CF910C94A71467
:101CD000FC01808191810C942A18CF93C82F88230E
:101CE00009F48FC08238C1F40E94CB0C81FD89C0F9
:101CF00089E30E9460180E94D4182FEF31EE84E02F
:101D0000215030408040E1F700C0000089E30E948C
:101D10006718CF910C94D4188338A1F40E94CB0C8F
:101D200080FD6FC083E50E9460180E94D4189FEF69
:101D300021EE34E0915020403040E1F700C0000037
:101D400083E5E5CF8438A1F40E94CB0C82FD59C015
:101D500087E40E9460180E94D4188FEF91EE24E06F
:101D6000815090402040E1F700C0000087E4CFCFD1
:101D70008CEF8C0F813AB8F48C2F0E947522811160
:101D800040C06C2F80910001909101010E941A1AAD
:101D9000882329F08C2F0E9467180E94D4188C2F5A
:101DA0000E946018B6CF80E28C0F883048F4C7706C
:101DB00081E001C0880FCA95EAF70E948818A9CF70
:101DC0008BE58C0F833038F42C2F2452330BC90150
:101DD000CF910C94320DE8E5EC0FE73150F4F0E0D0
:101DE000EE0FFF1FE35AFE4F80819181CF910C943B
:101DF000480DC03F30F08C2F0E941B1CCF910C94DB
:101E0000061DCF910895882309F452C0823871F4D9
:101E10000E94CB0C81FF4CC089E30E9460180E9495
:101E2000D41889E30E9467180C94D418833859F4A5
:101E30000E94CB0C80FF3CC083E50E9460180E948A
:101E4000D41883E5EFCF843859F40E94CB0C82FF7D
:101E50002FC087E40E9460180E94D41887E4E2CF64
:101E60009CEF980F913AF0F290E2980F983050F46E
:101E7000877091E001C0990F8A95EAF7892F0E9437
:101E80008E18D2CF9BE5980F933020F490E080E03D
:101E90000C94320D98E5980F973120F490E080E093
:101EA0000C94480D803F20F00E94831C0C94061D6A
:101EB0000895CF93C82F0E946D0EC93369F42FEF98
:101EC00087EE93E0215080409040E1F700C0000091
:101ED0008C2FCF910C94030F2FEF81EE94E02150C3
:101EE00080409040E1F7F2CF882321F00E948818CB
:101EF0000C94D4180895882321F00E948E180C9415
:101F0000D4180895BF92CF92DF92EF92FF920F9371
:101F10001F93CF93DF9300D000D00F92CDB7DEB7E1
:101F20006C016D837983FC01058102950F7012812C
:101F300011110E94A7180E947E18E82E882391F0A4
:101F40001123D1F08981807F803421F08D81805EE2
:101F5000883090F082E00E941F190E947E1891E064
:101F6000E82EE926B980B2949FE0B922EB2DF0E08B
:101F7000E954F44D0C943D2BE12CF4CF09810F7002
:101F8000F981F07F11F00295007F1123B1F0002359
:101F900061F08D81805E883018F02D81211109C09B
:101FA000802F0E9488180E94D4188D810E946D0E87
:101FB00015C0802F0E949918F6CF8D810E94030FC3
:101FC000002361F08D81805E883018F03D813111F1
:101FD00030C0802F0E948E180E94D418EB2DE8503C
:101FE000FF0B349720F40E94CB0C0E947807EE2060
:101FF00009F4E3C10E947A1880FDDFC1F601128264
:102000000E9474180E948116C6010E9403120E9449
:1020100074180F900F900F900F900F90DF91CF9149
:102020001F910F91FF90EF90DF90CF90BF900C9495
:10203000B216802F0E949F18CFCF49814F70F42E87
:102040005981507F503219F0F29480EFF8226D815F
:10205000662369F0613049F1112391F1002351F1B8
:10206000F601858180FFA1CF8F70858323C0112366
:1020700081F0011106C00E94BB188F290E94740FC5
:10208000ADCF0130C1F70E94BB188F290E94C11843
:10209000A5CF011106C00E94CA188F2D0E947B0F88
:1020A0009DCF013009F49ACFF6CF112329F00630E5
:1020B00008F094CF8F2DE2CF053008F08FCFEDCF11
:1020C000002359F3FD81F93369F42FEF37EE43E034
:1020D000215030404040E1F700C000008D810E9457
:1020E000030F7CCF5FEF61EE74E0515060407040B1
:1020F000E1F7F2CF898186958695837069F081300A
:1021000009F06CCF8D8199819370111102C090E01C
:1021100080E00E94480D62CF8D81998193701111EA
:1021200002C090E080E00E94320D58CF8D811123D3
:1021300029F00E941B1C0E94061D50CF0E94831C88
:10214000FACF8981837009F059C0111147CF4D81B1
:10215000429546954770440F440F8D818F7090E0F3
:10216000B0E0A0E0042E04C0880F991FAA1FBB1F77
:102170000A94D2F7ED8100E010E09801E4FF0FC06F
:102180000FE010E020E030E004C0000F111F221F1C
:10219000331F4A95D2F70095109520953095F98117
:1021A000F695F695F370FD83B901A801482B592BDC
:1021B0006A2B7B2B49835A836B837C83F23081F0BB
:1021C000F330A9F0F13029F0CB01BA010E94F715E4
:1021D00005CF69817A818B819C810E94CF15FECECB
:1021E00069817A818B819C810E941F16F7CE69815B
:1021F0007A818B819C810E94CD15F0CE869511232A
:1022000011F089818170882309F4E8CE4D814295CF
:1022100046954770440F440F8D818F7090E0B0E079
:10222000A0E0042E04C0880F991FAA1FBB1F0A94A8
:10223000D2F75D8100E010E0980154FF0FC00FE07D
:1022400010E020E030E004C0000F111F221F331FF8
:102250004A95D2F70095109520953095698166953D
:10226000669563706D83B901A801482B592B6A2BC1
:102270007B2B49835A836B837C835D8169817A815F
:102280008B819C81523051F0533059F0513019F00C
:102290000E944017A3CE0E941817A0CE0E94681774
:1022A0009DCE0E944B169ACE69816F70698311236F
:1022B00029F0862F0E9481168D81E0CE8D810E94AB
:1022C0007B0F89810E94B21689CE7D81723FA1F178
:1022D00060F4703FE1F0713F41F1112309F445C012
:1022E000011163CE89818F7124C08D81833F49F1B3
:1022F000843F99F7112379F199819F719983892FEF
:102300000E94811663E089810E940A1967CE112319
:1023100041F0053008F062CE89818F710E94E71686
:102320005DCE063008F05ACEF7CF89818F71112328
:1023300049F20E94811652CE89818F711123C9F30F
:10234000C1CF112329F089818F710E945C1646CE7E
:102350000E94571643CE81E00E941F19023008F4F4
:102360003DCE82E00E941F1939CE002399F0ED8105
:10237000E93341F4FFEF27EE33E0F15020403040E5
:10238000E1F7AACE4FEF51EE64E04150504060407B
:10239000E1F7A2CE89818F7195CF49814F706D8110
:1023A000C6010E9480070E94411518CE49814F70D6
:1023B0006D81C6010E94830711CE0F900F900F9080
:1023C0000F900F90DF91CF911F910F91FF90EF90A1
:1023D000DF90CF90BF9008950F931F93CF93DF931B
:1023E000EC01688179818A810E9436188C010E94F3
:1023F00090170E94CC15B801CE01DF91CF911F91AB
:102400000F910C94820FCF93DF93EC018B819C8111
:10241000892B29F08881998189238F3F59F4DF9195
:10242000CF910895CE010E94EC11CE01DF91CF91A2
:102430000C94F806CE010E941F078111F3CF0E9471
:102440007E18882361F38A81882349F382E0DF9133
:10245000CF910C941F190E94A7180E94B8180E94CF
:10246000D4180E94AE1E0E94061D90E080E00E94DB
:10247000320D90E080E00C94480D0E946E180C9490
:102480002B120E9496180C943D12282F892F8295AA
:102490008F70903C80F48A30B0F4843020F4823025
:1024A00090F480E008958630E1F781E0283E88F0DE
:1024B000213FB9F70EC08C3011F08F3091F793FBAC
:1024C000882780F9089581E0203F39F018F4283EEC
:1024D00040F70895243F29F7FCCF08950E942A1859
:1024E0000C944512CF93DF9300D000D00F92CDB75C
:1024F000DEB70F900F900F900F900F90DF91CF915C
:102500000895CF93DF9300D000D000D0CDB7DEB7D1
:1025100026960FB6F894DEBF0FBECDBFDF91CF91E8
:1025200008951F93CF93DF93E091BA0116E0809155
:10253000BB018E1304C0DF91CF911F910895CE2F60
:10254000D0E01E9FF0011124E454FE4F40815181E0
:1025500062817381848195810E948112FE0131968E
:10256000E770E5CF4091EC015091ED016091EE01F3
:102570007091EF018091F0019091F1010C94811222
:102580001F93CF93DF938091F101807FA9F4809115
:10259000EE01882389F08091BA01C091BB0160915E
:1025A000EC017091ED01A091EF01B091F001D62FF7
:1025B000D72316E0C81304C0DF91CF911F9108956F
:1025C00090E0109711F0DF3F19F401968770F2CF79
:1025D000189F9001199F300D1124F901E454FE4F0A
:1025E00041814713F2CF40814613EFCF4281411121
:1025F000ECCF438154814A1B5B0B483C510528F7C3
:102600008091F1018F7080618093F101F901EF53A6
:10261000FE4F80818F70806180838CEE91E00E94FC
:102620000312DF91CF911F910C949112AF92BF9240
:10263000CF92DF92EF92FF920F931F93CF93DF938E
:10264000CDB7DEB72B970FB6F894DEBF0FBECDBF68
:102650008C0185E0F801DE01179601900D928A95B4
:10266000E1F7F80140815181E2808CEEC82E81E0D3
:10267000D82E6091EF017091F0016115710509F498
:1026800044C19091EC012091ED01822F89238F3F6D
:1026900009F43BC1A380B480F090EE01F501E61B84
:1026A000F70BFF2009F4E0C08091F101382F307F53
:1026B000E83CF10508F0B2C0311179C0FE2C2513B9
:1026C00023C0941321C0E1101FC08F7080618093DC
:1026D000F1010E94B212C6010E9403128091F10121
:1026E000F80185838F2D2B960FB6F894DEBF0FBEB1
:1026F000CDBFDF91CF911F910F91FF90EF90DF90B1
:10270000CF90BF90AF900895AB2829F0842F8523F8
:102710008F3F09F016C180E0F82FF170DF2EE091B5
:10272000BA012091BB0136E080FD1CC0EE20D1F241
:102730008091F10181608093F101F12CD3CF8E2F34
:1027400090E03E9FF0011124E454FE4F6181651337
:1027500006C06081641303C06281E612E7CFFC010A
:102760003196E770E213EBCF4F8358878F819885BE
:102770000E942A18292F22952F70903260F0225F34
:102780002F70223078F49F7051F0F8019581907F7E
:1027900031F4D12C0AC09F7011F08823D1F3805EF0
:1027A0008830B8F3C8010E940312FD2C9BCF25137B
:1027B00006C0941304C0F801EE2009F470C04F83E2
:1027C00058878F8198850E946E12882319F1EE2018
:1027D00009F18091F101803270F02091EC0130918B
:1027E000ED013A8329831B82BD82AC828E83CE01A8
:1027F00001960E94031286E0F801ACEEB1E0019070
:102800000D928A95E1F70E94C0120E94B212FF2435
:10281000F39468CFC8010E940312F9CF311113C09D
:102820007A2DBB86AA866E2D8B850E9472128CEE45
:1028300091E00E94031286E0F60111928A95E9F771
:102840000E94B2127ACF2513BACF9413B8CFE110F9
:10285000B6CFF8018583C8010E94031286E0F60115
:1028600011928A95E9F73ECFE83CF10508F040C0A7
:10287000FE2CEE2079F225132AC0941328C08091F3
:10288000F10180FD1BC0982F907FC1F0F801858376
:10289000903F31F0982F907F905F8F70892B8583C8
:1028A000C8010E94031286E0F801ACEEB1E001908D
:1028B0000D928A95E1F70E94B21214CF86E0F801DA
:1028C000ACEEB1E001900D928A95E1F70BCF4F830A
:1028D00058878F8198850E946E1281118CCF8091CC
:1028E000F10181608093F101C8010E940312FACEC8
:1028F0007A2DBB86AA866E2D8B850E94721286E089
:10290000F60111928A95E9F7D6CFEE2009F482CF2D
:102910004F8358878F8198850E946E12F82E8823E6
:1029200009F478CF86E0F801ACEEB1E001900D92A9
:102930008A95E1F78CEE91E00E94680E0E94C01229
:10294000BACF81E08E25E8CE88EC90E008951F9301
:10295000CF93DF93CDB7DEB72C970FB6F894DEBFD9
:102960000FBECDBF4F83588769877A878B879C8737
:10297000CE0107960E941613882369F08A859B85ED
:10298000892B39F04F815885842F85238F3F09F09B
:1029900071C016E05FC086E0FE013796DE01119639
:1029A00001900D928A95E1F78A859B85892B89F3A1
:1029B00088859F8189238F3F61F32091BB0130E09F
:1029C000C9010196877099274091BA0148171906E5
:1029D00071F40E9441121092BB011092BA0186E07C
:1029E000ECEEF1E0DF011D928A95E9F7D2CF96E097
:1029F000929FD001939FB00D1124A454BE4FFE01AD
:102A0000319601900D929A95E1F78093BB010E9457
:102A10009112BFCF819FC001112484549E4F0E9408
:102A200016138823E9F0E091BA011E9FF0011124EA
:102A3000E454FE4F4081518162817381848195818C
:102A40000E9481128091BA0190E0019687709927C7
:102A50008093BA018091BA019091BB018913DACFBA
:102A60002C960FB6F894DEBF0FBECDBFDF91CF918D
:102A70001F91089569857A858B859C850E948112B6
:102A800088CFEF92FF920F931F93CF93DF938C0128
:102A9000892B89F0F12CEE24E394E8012196F801CA
:102AA0008491843709F457C0A0F4823009F43EC001
:102AB00048F48130D1F0DF91CF911F910F91FF90B9
:102AC000EF9008959CEF980F9037A8F70E946D0E35
:102AD0000AC0853709F44CC09CE7980F903758F727
:102AE0008F770E94030F8E0116C00E5F1F4FFE01ED
:102AF000849190E2980F983060F48770FE2D01C0A9
:102B0000FF0F8A95EAF78F2F0E94AA180E94D41807
:102B100002C00E946D0E8F2D815008F4BECFEFE9E8
:102B2000FFE03197F1F700C00000F6CF0E5F1F4FB6
:102B3000FE01849190E2980F983050F48770FE2D3A
:102B400001C0FF0F8A95EAF78F2F0E94B018DECFE1
:102B50000E94030FE0CF0E5F1F4FFE01C491C150D2
:102B6000D0F28FE99FE00197F1F700C00000F7CFA6
:102B70000E5F1F4FFE01F490CECF08950C94BD154B
:102B80000E94BE15609300027093010280930202BE
:102B9000909303020C942B1208950C94C015CF93BC
:102BA000DF9300D000D0CDB7DEB769837A838B8303
:102BB0009C838091000290910102A0910202B09149
:102BC000030229813A814B815C81282B392B4A2BC6
:102BD0005B2B29833A834B835C83CA01B9010F9035
:102BE0000F900F900F90DF91CF910C94C015CF9361
:102BF000DF9300D000D0CDB7DEB769837A838B83B3
:102C00009C838091000290910102A0910202B091F8
:102C1000030229813A814B815C81282339234A238D
:102C20005B2329833A834B835C83CA01B9010F90EC
:102C30000F900F900F90DF91CF910C94C015CF9310
:102C4000DF9300D000D0CDB7DEB769837A838B8362
:102C50009C838091000290910102A0910202B091A8
:102C6000030229813A814B815C81282739274A2731
:102C70005B2729833A834B835C83CA01B9010F9098
:102C80000F900F900F90DF91CF910C94C0150C9482
:102C9000BD150C9447160E9449166093FC01709371
:102CA000FD018093FE019093FF010C942B1260E0D4
:102CB00070E0CB010C944B160F931F93CF93DF93CF
:102CC00000D000D0CDB7DEB741E050E060E070E06A
:102CD0008A019B0104C0000F111F221F331F8A9518
:102CE000D2F709831A832B833C83C901B8010F9063
:102CF0000F900F900F90DF91CF911F910F910C9437
:102D00004B160F931F93CF93DF9300D000D0CDB716
:102D1000DEB741E050E060E070E004C0440F551FB2
:102D2000661F771F8A95D2F78091FC019091FD0173
:102D3000A091FE01B091FF018A019B01082B192B84
:102D40002A2B3B2B09831A832B833C83C901B801AF
:102D50000F900F900F900F90DF91CF911F910F91D7
:102D60000C944B160F931F93CF93DF9300D000D09A
:102D7000CDB7DEB741E050E060E070E004C0440F42
:102D8000551F661F771F8A95D2F74095509560951D
:102D900070958091FC019091FD01A091FE01B09190
:102DA000FF018A019B01082319232A233B2309835E
:102DB0001A832B833C83C901B8010F900F900F90A9
:102DC0000F90DF91CF911F910F910C944B160F93A1
:102DD0001F93CF93DF9300D000D0CDB7DEB741E093
:102DE00050E060E070E004C0440F551F661F771F7D
:102DF0008A95D2F78091FC019091FD01A091FE018E
:102E0000B091FF018A019B01082719272A273B2738
:102E100009831A832B833C83C901B8010F900F905B
:102E20000F900F90DF91CF911F910F910C944B1643
:102E3000CF93DF9300D000D0CDB7DEB769837A831C
:102E40008B839C838091FC019091FD01A091FE01F8
:102E5000B091FF0129813A814B815C81282B392B6C
:102E60004A2B5B2B29833A834B835C83CA01B901CC
:102E70000F900F900F900F90DF91CF910C944B1605
:102E8000CF93DF9300D000D0CDB7DEB769837A83CC
:102E90008B839C838091FC019091FD01A091FE01A8
:102EA000B091FF0129813A814B815C81282339232C
:102EB0004A235B2329833A834B835C83CA01B9018C
:102EC0000F900F900F900F90DF91CF910C944B16B5
:102ED000CF93DF9300D000D0CDB7DEB769837A837C
:102EE0008B839C838091FC019091FD01A091FE0158
:102EF000B091FF0129813A814B815C8128273927D4
:102F00004A275B2729833A834B835C83CA01B90133
:102F10000F900F900F900F90DF91CF910C944B1664
:102F20000895E82F2AE0929FE00D11248E2F8770DC
:102F300041E001C0440F8A95EAF7E695E695E695EB
:102F400085E0E89FF0011124EE50FE4F30E020E0D4
:102F500070E05191DF011197CB01022E02C09695CE
:102F600087950A94E2F781708195852784238527C8
:102F70008C932F5F3F4F2530310559F70895E82F87
:102F80002AE0929FE00D11249E2F9770E695E6951A
:102F9000E69585E0E89FF0011124EE50FE4F50E0E9
:102FA00040E080E0219130E0092E02C0369527955F
:102FB0000A94E2F721703327042E01C0220F0A94ED
:102FC000EAF7822B4F5F5F4F4530510559F708955F
:102FD000BF92CF92DF92EF92FF920F931F93CF9306
:102FE000DF938C01C090FC01D090FD01E090FE01C8
:102FF000F090FF018091000290910102A0910202E5
:10300000B0910302C82AD92AEA2AFB2ACFE1D0E0EC
:10301000BC2ED701C6010C2E04C0B695A795979576
:1030200087950A94D2F780FD0EC0219788F7B12CBE
:103030008B2DDF91CF911F910F91FF90EF90DF903B
:10304000CF90BF900895B8018C2F0E94A2070197DE
:1030500061F3EECFCF93DF93D82FC92F0E94E817EB
:103060006D2F7C2FDF91CF910C94A2071F93CF93EC
:10307000DF93162FD72F9091B901992339F0862F1E
:10308000972FDF91CF911F910C942A18882391F0EC
:10309000862F972F0E94E817C82F682F812F9D2F0A
:1030A0000E949117612F7D2F8C2FDF91CF911F915F
:1030B0000C94A207862F972F0E94BF17C82FF2CF1C
:1030C000682F80910001909101010C94541A682F8F
:1030D00080910001909101010C94561A8091000199
:1030E000909101010C94581A809104028595859560
:1030F0008595089580910402877008959091040247
:10310000977081E009F480E008958091100208959D
:1031100090911002982B909310020895982F9095FB
:10312000809110028923809310020895109210025A
:10313000089590910F02982B90930F020895982F65
:10314000909580910F02892380930F020895109229
:103150000F02089590910E02982B90930E020895FD
:10316000982F909580910E02892380930E020895E6
:1031700010920E02089580910502089508950C940E
:10318000BE1890910502981721F0809305020C94C7
:10319000BF18089580910502882329F01092050236
:1031A00080E00C94BF180895E0910001F0910101B6
:1031B000809110028083E0910001F09101018081F3
:1031C00090910F02892B8083E0910001F091010121
:1031D000808190910E02892B808390910502992322
:1031E00081F0E0910001F09101018081892B8083C1
:1031F00080910001909101010E94081A81110E94A2
:10320000CA1880910001909101010C94D70C089587
:103210000C94071998E0899F90011124622B609308
:1032200004020E94811680910402859585958595FA
:103230000C9408191092040280E00C9408199091E3
:1032400004028095892380930402282F277071F44B
:10325000282F082E000C330B9217130639F0859592
:10326000859585950E94B2160C941A19089590932D
:10327000A5018093A4010895829594E0899F90010F
:1032800011242C7C869586958373282B30E0C90108
:10329000880F991F8A7A359527952575822B089571
:1032A000CF93DF93D92F0E943C19C82F8D2F0E94F6
:1032B0003C199C2FDF91CF91089590E080E00E940F
:1032C0005F2B9C0181E02C3E3E4F09F080E0089589
:1032D00082E090E00C94572B83E090E00C94572B05
:1032E000CF9384E090E00E94572BC82F81E290E0BA
:1032F0000E94572B982F8C2FCF910895CF93682F32
:10330000C92F84E090E00E94652B6C2F81E290E051
:10331000CF910C94652BAB01BC018FE090E00C9435
:10332000772BAB01BC0183E190E00C94772B60E03C
:1033300070E0CB010C94911960E070E0CB010E9429
:103340008B190C9497196CEE7EEF90E080E00E9450
:10335000832B60E082E090E00E94652B60E083E0D8
:1033600090E00E94652B10920002109201021092D0
:1033700002021092030260E084E090E00E94652B5C
:1033800060E081E290E00E94652B60E085E090E0E3
:103390000E94652B60E086E090E00E94652B6FEF55
:1033A00087E090E00E94652B40E050E0BA0188E0A1
:1033B00090E00E94772B60E08DE090E00E94652B0A
:1033C00040E050E0BA0188E190E00E94772B60E095
:1033D00087E190E00E94652B40E050E0BA018CE16B
:1033E00090E00E94772B60E080E290E00E94652BE5
:1033F00040E050E0BA0188E190E00E94772B0C9405
:103400009C190C94A319682F8EE090E00C94652B06
:10341000AC019C012E5F3F4F485F5F4F80E0241757
:10342000350709F40895F90191919F019923B9F3A2
:103430008F5FF5CF9C01662351F0FC013296285F27
:103440003F4F8191861729F0E217F307D1F780E00B
:10345000089581E008959C01FC0132968FEF90E081
:103460004191461751F08F3F19F4411101C0892F46
:103470009F5F9630A9F78F3F09F40895280F311DFB
:1034800087FD3A95F901628308959C01FC0132960B
:10349000285F3F4F8191861303C0DF0111971C9273
:1034A000E217F307B9F708950C942B1A0C94451AF8
:1034B000FC01329686E0DF011D928A95E9F70895B6
:1034C000089508950C94611A0E94621A80913D0239
:1034D000843049F11092120288E190E020E40FB6A6
:1034E000F894A895809360000FBE2093600080E060
:1034F0000E9478070E94621A83B7817F846083BF2D
:1035000083B7816083BF7894889583B78E7F83BFAC
:103510000FB6F894A8958091600088618093600050
:10352000109260000FBE089508950E94601A0E94D4
:10353000070A0E94941A80E00E9495099C0181E08C
:10354000232B09F480E0089508950C94A41A0E9496
:1035500041120E94CB0C0E9478070C94A51A1F926E
:103560001FB61F9211248F939F93AF93BF938091A7
:103570001202811113C08091330290913402A09104
:103580003502B09136024196A11DB11D80933302E0
:1035900090933402A0933502B0933602BF91AF915D
:1035A0009F918F911F901FBE1F90189582E084BD40
:1035B00093E095BD9AEF97BD80936E0008952FB765
:1035C000F8948091330290913402A0913502B09129
:1035D00036022FBF0895CF93DF9300D000D0CDB730
:1035E000DEB78FB7F89420913302309134024091C6
:1035F00035025091360229833A834B835C838FBF17
:1036000069817A818B819C810F900F900F900F9030
:10361000DF91CF9108959C014FB7F89480913302C8
:1036200090913402A0913502B09136024FBF821BB7
:10363000930B089578941F921FB61F9211248F93B5
:103640009F93AF93BF938091330290913402A091E6
:103650003502B09136020196A11DB11D809333024F
:1036600090933402A0933502B0933602BF91AF918C
:103670009F918F911F901FBE1F90189581E080939E
:10368000E00080E28093D8001092C9008FE19EE4B0
:103690000197F1F700C0000087E090EBDC01809318
:1036A000460290934702A0934802B093490288E1F2
:1036B0009CE00FB6F894A895809360000FBE90939D
:1036C0006000FFCFCF93DF9300D000D0CDB7DEB73F
:1036D0000E945D19811102C00E94011A0E9468199E
:1036E000809311020E9470199093380280933702E0
:1036F0000E946C19282F30E050E040E0CA01B90167
:103700000E94CD158091FC019091FD01A091FE01D8
:10371000B091FF0189839A83AB83BC83BC01CD0147
:103720000F900F900F900F90DF91CF910C9449164E
:103730008091190280FF12C06091070185E0689FA7
:10374000B001112475956795759567956038710579
:10375000A8F561157105A1F1862F089581FF09C0B3
:103760006091070185E0689FB00111247595679508
:10377000EDCF6091070182FD0AC080911802882375
:10378000D1F09091060160910701891728F085E03A
:10379000689FB0011124DACF869FB001112485E023
:1037A000869F9001879F300D1124692F70E0C90119
:1037B0000E94292BCBCF65E070E0CECF8FE7089534
:1037C00081E008958091190280FF0CC0609103018F
:1037D00070E075956795759567956115710549F167
:1037E000862F089581FF06C06091030170E07595F2
:1037F0006795F3CF6091030182FD0BC09091170292
:103800009923A1F06091020180910301961738F08D
:10381000682F70E06038710500F38FE70895899F85
:10382000C001112470E00E94292BF4CF61E070E008
:10383000D7CF81E00895803F31F40E94981B819595
:1038400080931D020895813F19F40E94981BF8CFC0
:10385000823F31F40E94981B819580931C02089549
:10386000833F19F40E94981BF8CF893F29F40E94E6
:10387000E21B80931E0208958A3F21F40E94E21BFE
:103880008195F7CF8B3F31F40E94E21B81958093A5
:103890001F0208958C3F19F40E94E21BF8CF843F69
:1038A00031F480911B02816080931B020895853F53
:1038B00021F480911B028260F7CF863F21F4809132
:1038C0001B028460F1CF873F21F480911B02886046
:1038D000EBCF883F21F480911B028061E5CF8D3FC3
:1038E00031F48091190281608093190208958E3F0E
:1038F00021F4809119028260F7CF8F3FB9F7809150
:1039000019028460F1CF90911C02803F59F480919C
:103910001D0287FF0DC010921D0291110BC0109265
:10392000180208C0813F81F480911D0218169CF393
:10393000992381F080911E0290911F02892B09F03A
:1039400064C0109217020895823F49F497FFF0CFA8
:1039500010921C0280911D028111ECCFE0CF833FB9
:1039600019F41916ACF3E4CF20911E02893F29F413
:103970001216F4F610921E02DBCF8A3F19F427FFCD
:10398000D7CFF8CF20911F028B3F29F427FFD0CF4C
:1039900010921F02CDCF8C3F19F41216CCF3C8CF72
:1039A000843F31F480911B028E7F80931B02C0CF35
:1039B000853F21F480911B028D7FF7CF863F21F454
:1039C00080911B028B7FF1CF873F21F480911B02F6
:1039D000877FEBCF883F21F480911B028F7EE5CF5C
:1039E0008D3F31F4809119028E7F80931902A0CF10
:1039F0008E3F21F4809119028D7FF7CF8F3F09F020
:103A000097CF809119028B7FF0CF0895809111029A
:103A100083FF7EC085E691E00E940B0680911B0229
:103A20001F928F9380E691E09F938F930E94A4064C
:103A30008EE591E00E940B0680911C02282F082E33
:103A4000000C330B3F938F938BE591E09F938F9303
:103A50000E94A40689E591E00E940B0680911D0258
:103A6000282F082E000C330B3F938F9386E591E0AF
:103A70009F938F930E94A40684E591E00E940B0619
:103A800080911E02282F082E000C330B3F938F933A
:103A900081E591E09F938F930E94A4068FE491E0CB
:103AA0000E940B0680911F02282F082E000C330B5A
:103AB0003F938F938CE491E09F938F930E94A40691
:103AC00089E491E00E940B06809118021F928F9367
:103AD00086E491E09F938F930E94A40684E491E092
:103AE0000E940B06809119021F928F9381E491E04E
:103AF0009F938F930E94A4068EE391E00E940B0691
:103B00008DB79EB74C960FB6F8949EBF0FBE8DBF73
:103B10000E94DF1A20911C0230911D02232B21F0FC
:103B2000809315029093160220911E0230911F027D
:103B3000232B21F080931302909314028AE192E0E8
:103B40000C94230DEF92FF920F931F93CF93DF936B
:103B500000D000D000D0CDB7DEB786E0EAE1F2E0D9
:103B6000DE01119601900D928A95E1F7E0901C021A
:103B7000F0901D0200911E0210911F0210921C0273
:103B800010921D0210921E0210921F028E2D8F297C
:103B900091F080911502909116020E940B1B9C01DE
:103BA00080911802882309F43FC090910801921770
:103BB000130608F447C0802F812B91F080911302E7
:103BC000909114020E940B1B9C0180911702882384
:103BD00009F477C0909104019217130608F47FC08E
:103BE00080911C0290911D02892B90911E02892BBD
:103BF00090911F02892B11F00E94061D86E0FE01A4
:103C00003196AAE1B2E001900D928A95E1F72696ED
:103C10000FB6F894DEBF0FBECDBFDF91CF911F91DD
:103C20000F91FF90EF900895409109019AE0499F0C
:103C3000A00111244217530708F0BDCF8F5F809376
:103C4000180202C08F3FD1F7EE2059F00E94981B56
:103C50009FEF1E140CF491E0899F802D1124809316
:103C60001C02FF2059F00E94981B9FEF1F140CF4B8
:103C700091E0899F802D112480931D0230911C02B8
:103C8000332309F498CF20911D02222309F493CF06
:103C900045EB3403C0011124992359F090931C0281
:103CA00045EB240390011124332339F030931D0296
:103CB00082CF81E080931C02F3CF81E080931D02CC
:103CC0007ACF409105019AE0499FA0011124421743
:103CD000530708F085CF8F5F8093170202C08F3F94
:103CE000D1F7002359F00E94E21B9FEF10160CF44D
:103CF00091E0899F802D112480931E02112359F099
:103D00000E94E21B9FEF11160CF491E0899F802D19
:103D1000112480931F0230911E02332309F460CFD7
:103D200020911F02222309F45BCF45EB3403C0012D
:103D30001124992359F090931E0245EB240390011E
:103D40001124332339F030931F024ACF81E080934E
:103D50001E02F3CF81E080931F0242CF86E0EAE1AA
:103D6000F2E0DF011D928A95E9F710921802109295
:103D7000170210921902089588E893E00E940B063A
:103D80001F9281E08F931F9285E08F938AE393E0E7
:103D90009F938F930E94A4060F900F900F900F9007
:103DA0000F900F900895843009F45DC040F4823084
:103DB00061F1833009F440C0813041F008958530CD
:103DC00009F468C0863009F47CC008958091090127
:103DD000482F460F5527551F4F3F510594F4680F44
:103DE00060930901809109011F928F9383E792E00C
:103DF0009F938F930E94A4060F900F900F900F90A7
:103E000008958FEF80930901EDCF80910801482F2D
:103E1000460F5527551F4F3F510554F4680F6093C7
:103E20000801809108011F928F9381E692E0E0CF14
:103E30008FEF80930801F5CF80910701482F460F3F
:103E40005527551F4F3F510554F4680F60930701E4
:103E5000809107011F928F938EE492E0C9CF8FEF7C
:103E600080930701F5CF80910601482F460F552713
:103E7000551F4F3F510554F4680F60930601809120
:103E800006011F928F9389E392E0B2CF8FEF809368
:103E90000601F5CF80910301482F460F5527551F86
:103EA0004F3F510554F4680F609303018091030163
:103EB0001F928F9380E292E09BCF8FEF809303015C
:103EC000F5CF80910201482F460F5527551F4F3FD0
:103ED000510554F4680F60930201809102011F9212
:103EE0008F9385E092E084CF8FEF80930201F5CF2E
:103EF000843009F44AC038F4823029F18330A1F1CA
:103F0000813041F00895853009F450C0863009F4BD
:103F10005EC0089580910901681790F4861B809314
:103F20000901809109011F928F9386EF91E09F9381
:103F30008F930E94A4060F900F900F900F900895FA
:103F400010920901EECF80910801681750F4861B8A
:103F500080930801809108011F928F9384EE91E075
:103F6000E6CF10920801F6CF80910701681750F450
:103F7000861B80930701809107011F928F9381ED2B
:103F800091E0D5CF10920701F6CF80910601681716
:103F900050F4861B80930601809106011F928F9337
:103FA0008CEB91E0C4CF10920601F6CF8091030113
:103FB000681750F4861B80930301809103011F92C0
:103FC0008F9383EA91E0B3CF10920301F6CF8091F3
:103FD0000201681750F4861B809302018091020150
:103FE0001F928F9388E891E0A2CF10920201F6CF42
:103FF000CF93DF9300D000D0CDB7DEB789831F9277
:104000008F938DE894E09F938F930E94A40681E0A4
:1040100090E0A0E0B0E09C01AD01098004C0220F57
:10402000331F441F551F0A94D2F729833A834B83C9
:104030005C83CA01B9010E94CD150F900F900F90BB
:104040000F900F900F900F900F90DF91CF910C94E5
:104050004112CF93DF938B3258F4853098F0EBEF19
:10406000E80FE63278F4F0E0E953F44D0C943D2B80
:10407000833470F48A3308F025C2853359F08833CD
:1040800009F46BC186E199E00E940B0680E07AC1D9
:104090008334C1F780E00E94F81F56C185EB99E098
:1040A0000E940B0686E099E00E940B060E946C19A4
:1040B0001F928F9383E099E09F938F930E94A406B1
:1040C00081E099E00E940B060E946819C82F8EEECD
:1040D00098E00E940B061F92CF9389EE98E09F9381
:1040E0008F930E94A40687EE98E00E940B068DED48
:1040F00098E00E940B068C2F81701F928F938AED9F
:1041000098E09F938F930E94A40688ED98E00E9408
:104110000B068EEC98E00E940B06C1FB882780F905
:104120001F928F938BEC98E09F938F930E94A4062D
:1041300089EC98E00E940B068DEB98E00E940B063C
:10414000C2FB882780F91F928F938AEB98E09F9398
:104150008F930E94A40688EB98E00E940B068FEADA
:1041600098E00E940B06C3FBCC27C0F91F92CF93A7
:104170008CEA98E09F938F930E94A4068AEA98E0C5
:104180000E940B060E947019EC0186E998E00E94DB
:104190000B06DF93CF9381E998E09F938F930E9462
:1041A000A4068FE898E00E940B0686E798E00E943C
:1041B0000B068C2F81701F928F9383E798E09F935B
:1041C0008F930E94A4068DB79EB780960FB6F89481
:1041D0009EBF0FBE8DBF81E798E00E940B068AE567
:1041E00098E00E940B06C1FB882780F91F928F93ED
:1041F00087E598E09F938F930E94A40685E598E059
:104200000E940B0683E498E00E940B068D2F8170BC
:104210001F928F9380E498E09F938F930E94A4064F
:104220008EE398E00E940B068CE298E00E940B0659
:10423000D695D1701F92DF9389E298E09F938F9378
:104240000E94A40687E298E00E940B0685E198E0B0
:104250000E940B06C2FB882780F91F928F9382E190
:1042600098E09F938F930E94A40680E198E00E94BB
:104270000B068EEF97E00E940B06C3FB882780F9A0
:104280001F928F938BEF97E09F938F930E94A406CA
:1042900089EF97E00E940B068FEE97E00E940B06D5
:1042A000C4FB882780F91F928F938CEE97E09F9331
:1042B0008F930E94A4068AEE97E00E940B0688ED79
:1042C00097E00E940B06C5FB882780F91F928F9309
:1042D00085ED97E09F938F930E94A40683ED97E06E
:1042E0000E940B0687EB97E00E940B06C6FB88270F
:1042F00080F91F928F9384EB97E09F938F930E9496
:10430000A4068DB79EB780960FB6F8949EBF0FBED9
:104310008DBF82EB97E00E940B068AEA97E00E942D
:104320000B06C7FBCC27C0F91F92CF9387EA97E013
:104330009F938F930E94A40685EA97E00E940B0644
:104340000F900F900F900F9081E01CC084EA99E0CD
:104350000E940B060E94011AF7CF82E096E00E94AD
:104360000B06F2CF80911102807F809311028BEDBA
:1043700095E00E940B0680EA99E00E940B0681E01E
:1043800080932102DF91CF91089584E899E00E9403
:104390000B060E941007D8CF90911102892F8E7FB3
:1043A00090FF81608093110280FF03C088E799E04D
:1043B000D6CF8BE699E00E940B0680911102817F97
:1043C00080931102C1CF90911102892F8D7F91FFAF
:1043D00082608093110281FF08C08EE599E00E94FF
:1043E0000B06809111028160EBCF80E599E0B7CF99
:1043F00090911102892F8B7F92FF8460809311022C
:1044000082FF03C081E499E0EACF81E399E0A7CF7E
:1044100090911102892F877F93FF8860809311020A
:1044200083FF03C085E299E0DACF88E199E097CF76
:104430008CEC95E00E940B0680E995E00E940B064B
:104440008CE595E00E940B0686E295E00E940B0643
:104450008BEF94E084CF8DEE94E00E940B060E94D7
:10446000CB0C1F928F9383ED94E09F938F930E94C8
:10447000A406809114011F928F938CEB94E09F937C
:104480008F930E94A40680912E021F928F9389EA37
:1044900094E09F938F930E94A4060E94EB1A9F932F
:1044A0008F937F936F9382E994E09F938F930E9401
:1044B000A4068DB79EB742960FB6F8949EBF0FBE66
:1044C0008DBF42CF8953E7CD8D51E5CD80E0089572
:1044D0000C9466228E518A3030F4E82FF0E0E557D4
:1044E000FE4F8081089580E00895CF93C82F80917A
:1044F00021028130A9F0823009F446C0811136C111
:104500000E948518823209F033C18C2F0E946622E6
:1045100081111BC08C2F0E9429208170CF9108959A
:104520000E948518823289F38C2F0E9468228111A3
:104530001BC0C431D9F060F4CB3071F0C031D1F080
:1045400083E894E00E940B0613C081E090E0E5CF81
:10455000C93261F0C833A1F78BED95E00E940B06DC
:1045600089E894E00E940B0681E0D7CF10922102E7
:1045700080E0D3CF0E94BC1E85E894E00E940B0629
:1045800082E080932102F0CFC93209F445C060F582
:10459000C33109F450C050F4C73009F4CDC0CB305A
:1045A000C1F187E293E00E940B061CC0C431A1F167
:1045B00082EE8C0F8630A8F78C2F0E946A2280939F
:1045C000200280912002882309F4CDC01F928F938E
:1045D00081E293E09F938F930E94A4060F900F9027
:1045E0000F900F9081E09ACFCE3409F4A3C050F41D
:1045F000C83379F06AE0CB34A1F6809120020E94A2
:10460000D31EDFCFC13509F48FC061E0C235A9F3F5
:10461000C8CF0E94BC1ED5CF80912002882319F0FC
:1046200010922002CECF86E393E00E940B0681E039
:104630008093210273CF80E193E00E940B068EEFFE
:1046400092E00E940B06809109011F928F938BEFDD
:1046500092E09F938F930E94A40689EF92E00E94BC
:104660000B0687EE92E00E940B06809108011F92D4
:104670008F9384EE92E09F938F930E94A40682EE24
:1046800092E00E940B0683ED92E00E940B0680915F
:1046900007011F928F9380ED92E09F938F930E946A
:1046A000A4068EEC92E00E940B068DEB92E00E9435
:1046B0000B06809106011F928F938AEB92E09F93E5
:1046C0008F930E94A40688EB92E00E940B0683EA77
:1046D00092E00E940B06809103011F928F9380EA63
:1046E00092E09F938F930E94A4068EE992E00E942D
:1046F0000B0687E892E00E940B06809102011F9250
:104700008F9384E892E09F938F930E94A40682E89F
:1047100092E00E940B068DB79EB748960FB6F894AC
:104720009EBF0FBE8DBF4DCF61E0809120020E94E1
:10473000781F47CF6AE0F9CF8EE18093090182E3C9
:10474000809308018AE08093070184E18093060149
:1047500088E08093030188E28093020189E293E07C
:104760000E940B062ECF8EE193E01DCF1092210206
:1047700080E0D4CE80912D0208959FB7F8941092D6
:1047800024029FBF90913D02943009F048C02091CF
:10479000E9002F703091EC00932F917030FD90E87C
:1047A000922B23E02093E9002091EB0020FF34C0FE
:1047B0002091EE0027FF30C020912202222321F019
:1047C0002091E80025FF28C01092220226E03091B7
:1047D000E80035FF14C08093F1008091E80085FD6A
:1047E00027C08091E80080FFFCCF8091E8008E77A1
:1047F0008093E8009F709093E90080E008953091E5
:104800003D02343049F43091EB0035FD05C02150B4
:1048100041F481E0809322029F709093E9008FEF32
:104820000895EFE9FFE03197F1F700C00000CFCF26
:104830008FB7F89421E0209324028FBFDBCFCF9372
:10484000DF9300D00F92CDB7DEB790913D02943048
:1048500019F589836A837B8382E08093E9008FEF77
:104860009091E800815095FD06C095ED9A95F1F77D
:1048700000008111F5CF8091E80085FF0DC050E068
:1048800040E063E070E0CE0101960E9496268091A0
:10489000E8008E778093E8000F900F900F90DF91E3
:1048A000CF910895BC0184E00C941F24BC0183E0E7
:1048B0000C941F2422E02093E9002FEF3091E800B0
:1048C000215035FD06C035ED3A95F1F70000211174
:1048D000F5CF2091E80025FF0BC050E040E066E0F6
:1048E00070E00E9496268091E8008E778093E80021
:1048F0000895CF93DF93D82FC92F81E08093E900EB
:104900008FEF9091E800815095FD06C095ED9A9546
:10491000F1F700008111F5CF8091E80085FF16C006
:1049200050E040E068E070E08D2F9C2F0E949626BA
:104930008091E8008E778093E80088E0ED2FFC2FCF
:10494000A5E2B2E001900D928A95E1F7DF91CF9157
:10495000089585EE99E00E940B0680913C0281113A
:1049600009C00E941E280E947B288091E20084607A
:104970008093E200089581EE99E00E940B06109268
:104980003C0208958DED99E00C940B0689ED99E0B9
:104990000C940B0685ED99E00E940B060C94A71A67
:1049A000209123022F5F822F62E30E941D2B992307
:1049B00019F020932302089510922302809124027B
:1049C0008823F1F080913D028430C1F49091E90098
:1049D0009F702091EC00822F817020FD80E8892B50
:1049E00093E09093E9009091EB0090FF04C09091C8
:1049F000EE0097FD08C08F708093E90010922402AA
:104A000008951092F1009091E80095FDFACF9091F1
:104A1000E80090FFF0CF9091E8009E779093E80037
:104A2000EACF42E061EC81E00E949A2742E261EC29
:104A300082E00E949A2742E261EC83E00C949A277C
:104A400080913F02893089F148F4823009F49DC099
:104A5000833009F458C0813041F008958A3009F458
:104A600084C08B3009F46AC0089580913E02813A77
:104A700009F048C08091E800877F8093E80080912A
:104A8000420290914302892B61F468E085E292E052
:104A900070E00E94E5268091E8008B778093E80023
:104AA000089560E090E080E0F3CF80913E02813293
:104AB00049F58091420290914302029718F5809146
:104AC000E800877F8093E8008091E80082FF16C0AD
:104AD0009091F3008091F200029729F48091F10007
:104AE0008B7F813021F48091F10080932D028091A1
:104AF000E8008B778093E8000C94CE2780913D02EC
:104B00008111E2CF089580913E02813AD9F78091D8
:104B1000420290914302892BA9F78091E800877F98
:104B20008093E8008091E80080FFFCCF8091140121
:104B30008093F1008091E8008E77DCCF80913E0277
:104B4000813201F78091420290914302892BD1F684
:104B50008091E800877F8093E8000E94CE278091B3
:104B60004002809314010C94411280913E028132E4
:104B700049F68091E800877F8093E8000E94CE2765
:104B80008091410280932E02089580913E02813AE5
:104B900009F0B8CF8091E800877F8093E80080918A
:104BA000E80080FFFCCF80912E02C2CF84B7877FC0
:104BB00084BF0FB6F894A8958091600088618093B7
:104BC0006000109260000FBE80E890E00FB6F8948D
:104BD00080936100909361000FBE0E946C0D0E9453
:104BE0001E280E947B288091E20084608093E2006E
:104BF0008DEB93E20E94371978940E94022B0E9459
:104C0000780D8AE091E00E94C60C84EC99E00E9445
:104C10000B0680913D02853039F00E94AA0D0E945A
:104C2000760D0E94770DF5CF80EC99E00E940B067F
:104C30000E94641A80913B02882359F30E94951ABE
:104C4000882339F30E948026E4CF0C942726FC01A8
:104C5000CB01DA012F2F332723303105D1F070F447
:104C60002130310509F447C02230310569F48BE564
:104C700090E02BE13AE02D933C93089521323105E9
:104C8000E9F02232310539F190E080E030E020E0B7
:104C9000F2CFCF019927E13059F08230910559F0D8
:104CA000E7E1FAE0892B81F7849190E09F01E3CF5F
:104CB000E5EFF9E0F9CFE9EEF9E0F6CF6330710501
:104CC00018F7880F991FFC01E256FE4F20813181B1
:104CD00089E090E0D0CF63307105B0F6FB01EE0FB4
:104CE000FF1FE856FE4F208131818B569E4FFC01FD
:104CF000808190E0C0CF82E190E026E73AE0BBCF30
:104D000080E189BD82E189BD09B400FEFDCF8091BB
:104D1000D8008F7D8093D8008091E00082608093DE
:104D2000E0008091E00081FDFCCF0895AF92BF923A
:104D3000CF92DF92FF920F931F93CF93DF936C017B
:104D4000EB018A010E94ED27F82E811123C0011585
:104D5000110539F0F80180819181C81BD90BC80E6B
:104D6000D91EB12CA12C2097A9F08091E80085FDD7
:104D700022C08091E8008E778093E800011511052C
:104D8000A1F0F80180819181A80EB91EB182A082A4
:104D900085E0F82E8F2DDF91CF911F910F91FF901D
:104DA000DF90CF90BF90AF9008950E94ED278823A9
:104DB000D1F2F82EEFCFF60181916F018093F100CF
:104DC0002197FFEFAF1ABF0ACECFFC01CB01209194
:104DD0004402309145022617370790F0009729F4D6
:104DE0002091E8002E772093E80040E0009751F4EE
:104DF000411108C08091E80082FF31C080E0089531
:104E0000C901F3CF20913D022223A9F12530A9F158
:104E10002091E80023FD2DC02091E80022FDEACF7B
:104E20002091E80020FFE2CF3091F3002091F200C2
:104E3000009719F02830310558F041E0283031054D
:104E400009F040E02091E8002E772093E800CECFD3
:104E500041914093F10001972F5F3F4FE9CF80913F
:104E60003D02882341F0853041F08091E80083FFC6
:104E7000C1CF81E0089582E0089583E00895FC01A8
:104E8000CB0120914402309145022617370790F05C
:104E9000009729F42091E8002E772093E80040E065
:104EA000009751F4411108C08091E80082FF32C0A0
:104EB00080E00895C901F3CF20913D022223B1F192
:104EC0002530B1F12091E80023FD2EC02091E800AB
:104ED00022FDEACF2091E80020FFE2CF3091F300DD
:104EE0002091F200009719F02830310558F041E088
:104EF0002830310509F040E02091E8002E7720931A
:104F0000E800CECF44914093F100319601972F5F96
:104F10003F4FE8CF80913D02882341F0853041F03A
:104F20008091E80083FFC0CF81E0089582E008957A
:104F300083E00895982F973028F08F708093E900D0
:104F400081E008959093E900242F762F50E0981780
:104F500031F07091EC002091ED005091F00021FDB6
:104F600002C09F5FE8CF3091EB003E7F3093EB00B3
:104F70003091ED003D7F3093ED003091EB003160DA
:104F80003093EB007093EC002093ED005093F00011
:104F90002091EE0027FDE5CF80E0089580913E024C
:104FA00087FF13C08091E80082FF06C08091E8006F
:104FB0008B778093E80004C080913D028111F2CF8D
:104FC000089580913D028823D9F38091E80080FF05
:104FD000F8CF8091E8008E77ECCF2091E4003091FB
:104FE000E50095E6A9012091EC00822F817020FF59
:104FF00006C08091E80080FF06C080E008952091FF
:10500000E80022FD1AC080913D02882389F0853096
:1050100089F08091EB0085FD0FC02091E400309174
:10502000E50042175307F9F29150E1F684E0089544
:1050300082E0089583E0089581E008950E948C281D
:105040000E949428E0EEF0E0808181608083E8EDAA
:10505000F0E080818F77808319BCA7EDB0E08C9160
:105060008E7F8C9380818F7E808310923C02089586
:105070000F931F93CF93DF930E948C280E94942854
:10508000C8EDD0E088818F778883888180688883A5
:1050900088818F7D888319BC10923D02109239025D
:1050A00010923B0210923A0200EE10E0F80180816B
:1050B0008B7F808388818160888342E060E080E02C
:1050C0000E949A27E1EEF0E080818E7F8083E2EEFD
:1050D000F0E0808181608083808188608083F80136
:1050E00080818E7F8083888180618883DF91CF91EA
:1050F0001F910F910895E8EDF0E080818F7E80830D
:10510000E7EDF0E080818160808384E082BF81E010
:1051100080933C020C943828E8EDF0E080818E7F8B
:1051200080831092E20008951092DA001092E1005C
:1051300008951F920F920FB60F9211242F933F9351
:105140004F935F936F937F938F939F93AF93BF938F
:10515000EF93FF938091E10082FF0BC08091E2000A
:1051600082FF07C08091E1008B7F8093E1000E9465
:10517000D0248091DA0080FF19C08091D80080FF90
:1051800015C08091DA008E7F8093DA008091D9007B
:1051900080FF94C080E189BD82E189BD09B400FE31
:1051A000FDCF81E080933D020E94A9248091E1001F
:1051B00080FF19C08091E20080FF15C08091E2005D
:1051C0008E7F8093E2008091E20080618093E20014
:1051D0008091D80080628093D80019BC85E08093CC
:1051E0003D020E94C6248091E10084FF29C0809185
:1051F000E20084FF25C080E189BD82E189BD09B458
:1052000000FEFDCF8091D8008F7D8093D8008091E3
:10521000E1008F7E8093E1008091E2008F7E809399
:10522000E2008091E20081608093E2008091390287
:10523000882309F449C084E080933D020E94CA2477
:105240008091E10083FF29C08091E20083FF25C0A7
:105250008091E100877F8093E10082E080933D02AE
:10526000109239028091E1008E7F8093E10080915D
:10527000E2008E7F8093E2008091E2008061809363
:10528000E20042E060E080E00E949A278091F00016
:1052900088608093F0000E94C224FF91EF91BF913B
:1052A000AF919F918F917F916F915F914F913F91BE
:1052B0002F910F900FBE0F901F90189519BC109250
:1052C0003D020E94BB2472CF8091E30087FD02C0A3
:1052D00081E0B2CF83E0B0CF1F920F920FB60F9252
:1052E00011242F933F934F935F936F937F938F93EB
:1052F0009F93AF93BF93CF93DF93EF93FF93D0919F
:10530000E900DF708091EC00C82FC17080FDC0E81B
:105310001092E9008091F000877F8093F0007894EC
:105320000E94B0291092E9008091F000886080937B
:10533000F000CD2BCF70C093E900FF91EF91DF918A
:10534000CF91BF91AF919F918F917F916F915F911D
:105350004F913F912F910F900FBE0F901F90189576
:105360001F93CF93DF93CDB7DEB7AA970FB6F8940C
:10537000DEBF0FBECDBF8EE392E0FC01019620910F
:10538000F100208322E086349207B9F70E9420259D
:105390008091E80083FF1EC180913E0290913F0200
:1053A0009A3008F017C1E92FF0E0E351F44D0C9466
:1053B0003D2B803899F0823809F00CC1809142026F
:1053C0008F70873008F006C18093E9008091EB0070
:1053D00085FB882780F91092E90006C080913A0287
:1053E00090913B02911182609091E800977F909399
:1053F000E8008093F1001092F1008091E8008E7730
:10540000E5C0882309F4D3C0823009F0E3C080915D
:1054100040028111D6C0809142028F702FEF280F79
:10542000263008F0D7C08093E9002091EB0020FFE0
:10543000C8C0933031F48091EB0080628093EB0020
:10544000C0C09091EB0090619093EB0021E030E0C0
:1054500001C0220F8A95EAF72093EA001092EA0031
:105460008091EB008860EACF8111B4C010914002B6
:105470001F778091E3008078812B8093E3008091F7
:10548000E800877F8093E8000E94CE278091E800A3
:1054900080FFFCCF8091E30080688093E30082E08E
:1054A000111183E080933D0295C08058823008F04E
:1054B00091C080914002909141028C3D23E092077F
:1054C000A1F583E08A838AE289834FB7F894DE01ED
:1054D000139620E03EE051E2E32FF0E050935700B6
:1054E000E49120FF03C0E295EF703F5FEF708E2FD5
:1054F00090E0EA30C0F0C7968D939D932F5F2431E2
:1055000059F74FBF8091E800877F8093E8006AE2F7
:1055100070E0CE0101960E94E5268091E8008B772D
:105520008093E80057C0C096E7CF60914202709127
:105530004302AE014F5F5F4F0E942526BC01892BBD
:1055400009F448C08091E800877F8093E800898152
:105550009A810E943F27E1CF8038E1F58091E800F1
:10556000877F8093E800809139028093F10045CFD6
:10557000811130C090914002923060F58091E80036
:10558000877F8093E800909339020E94CE27809114
:105590003902882311F084E005C08091E30087FD83
:1055A000FACF81E080933D020E94112513C08091C3
:1055B0004002813079F481E0933009F080E08093FB
:1055C0003B021092E9008091E800877F8093E80019
:1055D0000E94CE278091E80083FF0AC08091E800F6
:1055E000877F8093E8008091EB0080628093EB00DE
:1055F000AA960FB6F894DEBF0FBECDBFDF91CF9154
:105600001F910895CF9380913D028823A1F0C0910E
:10561000E900CF709091EC00892F817090FD80E8B7
:10562000C82B1092E9008091E80083FD0E94B02908
:10563000CF70C093E900CF910895991B79E004C021
:10564000991F961708F0961B881F7A95C9F78095C1
:10565000089597FB072E16F4009407D077FD09D024
:105660000E94432B07FC05D03EF4909581959F4FF7
:105670000895709561957F4F0895EE0FFF1F059077
:10568000F491E02D0994AA1BBB1B51E107C0AA1F8E
:10569000BB1FA617B70710F0A61BB70B881F991FD3
:1056A0005A95A9F780959095BC01CD010895F99977
:1056B000FECF92BD81BDF89A992780B50895A8E1E3
:1056C000B0E042E050E00C948B2B262FF999FECFEE
:1056D00092BD81BDF89A019700B4021639F01FBA45
:1056E00020BD0FB6F894FA9AF99A0FBE0895039662
:1056F000272F0E94662B0E94652B252F0E94662B68
:10570000242F0C94662B0196272F0E94662B0C9455
:10571000652BDC01CB01FC01F999FECF06C0F2BD7F
:10572000E1BDF89A319600B40D9241505040B8F75F
:105730000895F894FFCF110C170C1B0C290C2D0C9D
:10574000310C350C3B0C430C470C4B0C4F0C5B0CD9
:105750005F0C630C670C6D0C8B0C750C1F0C250C0F
:10576000530C570C3F0C710C810C940C980CBE0F11
:10577000BE0F1D101D107A109610EE0FEE0FA11027
:10578000541165116511CD11EE0FEE0FD611C52123
:10579000B221CC214E2042204220AD214220422085
:1057A000F82142200822422042204220422042206A
:1057B0002B224220422018224220E3214220422074
:1057C00064226422642264226422642264226422A9
:1057D00064224A204220C521A621D929012AEA2A89
:0E57E000012AEA2A342A552AEA2AAC2AB82AD3
:1057EE0006022808641E140A321EBA2379245A248B
:1057FE005624522401E200E900EA00B500B600B7D3
:10580E0000CD008301CC008A019201940121022374
:10581E000224022502260227022A02B300B4006FD8
:10582E00007000946697C6F6F73133000000FF0152
:10583E0000010000FFFF0000010001FF00E200E98F
:10584E0000EA00B500B600B700CD008301CC008A97
:10585E00019201940121022302240225022602272D
:10586E00022A02B300B4006F0070000102030405A7
:10587E0006070809004081222B0BAA0A880A2D0A66
:04588E00460A5F0A5D
:00000001FF
